:020000040800F2
:100000002030002045010008630400085B0400085C
:100010005F040008B9010008810A00080000000020
:1000200000000000000000000000000009060008B9
:10003000BD0100080000000011050008F5060008D9
:100040005F0100085F0100085F0100085F01000810
:100050005F0100085F0100085F0100085F01000800
:100060005F0100085F0100085F0100085F010008F0
:100070005F0100085F0100085F0100085F010008E0
:100080005F0100085F0100085F0100085F010008D0
:100090005F0100085F0100085F0100085F010008C0
:1000A0005F0100085F0100085F0100085F010008B0
:1000B0005F0100085F0100085F0100085F010008A0
:1000C0005F0100085F0100085F0100085F01000890
:1000D0005F010008590700085F0100085F01000880
:1000E0005F0100085F0100085F0100085F01000870
:1000F0005F0100085F0100085F0100085F01000860
:100100005F0100085F0100085F0100085F0100084F
:100110005F0100085F0100085F0100085F0100083F
:100120005F0100085F0100085F0100085F0100082F
:10013000DFF80CD000F02EF800480047850C0008CE
:10014000203000200648804706480047FEE7FEE7CB
:10015000FEE7FEE7FEE7FEE7FEE7FEE7FEE7FEE777
:10016000F90600083101000830B50B4601460020B1
:100170002022012409E021FA02F59D4205D303FA69
:1001800002F5491B04FA02F52844151EA2F10102EA
:10019000F1DC30BD064C074D06E0E06840F001039D
:1001A00094E8070098471034AC42F6D3FFF7C4FF39
:1001B000B80C0008D80C000800BFFEE7704700002C
:1001C0000149C860704700000020024030B5044675
:1001D00004254FF4302000F07BF80546042D17D19C
:1001E0000C48006940F002000A4908610846446171
:1001F000006940F0400008614FF4302000F068F8DA
:1002000005460448006941F6FD710840014908614E
:10021000284630BD0020024004200B49C96801F087
:10022000010109B101200EE00749C96801F004018C
:1002300009B1022007E00449C96801F0100109B1C1
:10024000032000E0042070470020024003480069BA
:1002500040F0800001490861704700000020024022
:1002600070B504460D460426F00200F031F806464B
:10027000042E11D10948006940F0010007490861C6
:100280002580F00200F024F806460448006941F693
:10029000FE71084001490861304670BD00200240EF
:1002A00010B503E010F8013B01F8013B1300A2F187
:1002B0000104A2B2F6D110BD0248034948600348C8
:1002C000486070472301674500200240AB89EFCDAD
:1002D00000B502460423FFF79FFF034603E0FFF744
:1002E0009BFF0346521E012B01D1002AF7D102B910
:1002F0000523184600BD2DE9F04106460C4615467B
:10030000284605EBD071C1F34F05FFF7D5FF352027
:10031000FFF756FF3046FFF759FF0AE014F8017B5C
:1003200014F8011B47EA012739463046FFF798FFCA
:10033000B61C2800A5F101018DB2EFD1FFF786FFB1
:10034000BDE8F0812DE9F04102460025002600209D
:1003500000230024002791F803C00CF00F0591F84A
:1003600003C00CF0100CBCF1000F03D091F802C0D8
:100370004CEA050591F800C0BCF1000F31D01468BB
:1003800000202BE04FF0010C0CFA00F3B1F800C094
:100390000CEA03069E4220D183004FF00F0C0CFAAA
:1003A00003F7BC4305FA03FC4CEA040491F803C0CC
:1003B000BCF1280F06D14FF0010C0CFA00FCC2F87A
:1003C00014C00AE091F803C0BCF1480F05D14FF00A
:1003D000010C0CFA00FCC2F810C0401C0828D1D354
:1003E0001460B1F800C0BCF1FF0F34DD5468002088
:1003F0002EE000F1080C4FF0010808FA0CF3B1F8F8
:1004000000C00CEA03069E4221D183004FF00F0C7E
:100410000CFA03F7BC4305FA03FC4CEA040491F818
:1004200003C0BCF1280F05D100F1080C08FA0CF844
:10043000C2F8148091F803C0BCF1480F07D100F155
:10044000080C4FF0010808FA0CF8C2F81080401CA4
:100450000828CED35460BDE8F08100BFFEE700BF9E
:10046000FEE7704708B54FF4A06000F047F825207C
:100470008DF8000001208DF801008DF802008DF844
:100480000300684600F002F808BD000070B50021C6
:1004900000230F22C47804B3154C246804F4E064EC
:1004A000C4F5E064210AC1F10403CA40447804FAA7
:1004B00003F184781440214309010E4C0678A155BC
:1004C000047804F01F050124AC4005786D11AD00DF
:1004D00005F1E025C5F8004109E0047804F01F05A6
:1004E0000124AC40044D0678761145F8264070BDD5
:1004F0000CED00E000E400E080E100E0024901438F
:10050000024A1160704700000000FA050CED00E09F
:100510007047000029B1064A92690243044B9A6170
:1005200004E0034A92698243014B9A6170470000DC
:100530000010024030B500210022002400232D4D80
:100540006D6805F00C0121B1042905D0082923D1DB
:1005500005E0294D056022E0274D05601FE0254D8F
:100560006D6805F47012234D6D6805F48034022522
:1005700005EB92421CB9214D554305600BE01D4D22
:100580006D6805F400351DB11C4D5543056002E052
:10059000194D5543056002E0174D056000BF00BFCF
:1005A000144D6D6805F0F0010909154D6B5C056887
:1005B000DD4045600F4D6D6805F4E061090A104D9E
:1005C0006B5C4568DD4085600A4D6D6805F46051DF
:1005D000C90A0B4D6B5C4568DD40C560054D6D6813
:1005E00005F44041890B074D6B5CC568B5FBF3F51D
:1005F000056130BD0010024000127A0000093D0084
:100600000200002012000020704710B500F002F830
:1006100010BD00000CB50020019000903348006828
:1006200040F480303149086000BF3048006800F471
:10063000003000900198401C0190009818B9019872
:10064000B0F5A06FF1D12948006800F4003010B176
:100650000120009001E0002000900098012843D183
:100660002348006840F010002149086008460068EF
:1006700020F0030008600846006840F002000860AF
:100680001A4840681949486008464068486008466A
:10069000406840F4806048600846406820F47C1060
:1006A00048600846406840F4E81048600846006822
:1006B00040F08070086000BF0C48006800F00070D7
:1006C0000028F9D00948406820F003000749486035
:1006D0000846406840F00200486000BF0348406898
:1006E00000F00C000828F9D10CBD000000100240F9
:1006F000002002407047000010B51348006840F029
:1007000001001149086008464068104908400E4938
:100710004860084600680E4908400B4908600846D2
:10072000006820F4802008600846406820F4FE003D
:1007300048604FF41F008860FFF767FF4FF00060CC
:100740000449086010BD0000001002400000FFF8DE
:10075000FFFFF6FE08ED00E070B500BF40F2255146
:10076000264800F0CEF858B12449091D0988CAB2BC
:1007700023490878411C224B197022490A543BE056
:1007800040F224411D4800F0BCF8002834D01B483A
:100790000088C5B21948001D0088C5B201201A4959
:1007A0000870002405E01748015D144800F06AF95C
:1007B000641C134800788442F5DB11480078801EE1
:1007C0001049085C412814D10D480078401E085C8F
:1007D00035280ED10DA1094800F063F908480178C9
:1007E0000BA000F073F90648027806490948FFF7A4
:1007F00082FD00200249087070BD000000380140F1
:10080000000000201C000020010000206F6B0A0087
:10081000256400000020000801F40072B2F5007F9A
:1008200000D100BFCA430280704721B1828942F4DF
:100830000052828104E082894DF6FF731A40828162
:100840007047000000B585B001210420FFF762FE6B
:1008500001218803FFF75EFE4FF40070ADF8100031
:1008600018208DF8130003208DF8120004A91C48ED
:10087000FFF768FD4FF48060ADF8100004208DF89C
:10088000130004A91648FFF75DFD4FF4E130009016
:100890000020ADF80400ADF80600ADF80800ADF892
:1008A0000C000C20ADF80A0069460E4800F078F8FC
:1008B000FFF7D8FD012240F225510A4800F04BF81D
:1008C000012240F22441074800F045F84021054844
:1008D000FFF7A2FF01210348FFF7A7FF05B000BD06
:1008E000000801400038014002460020B1F5007FB9
:1008F00000D100BF13880B400BB1012000E00020A5
:10090000704770B50246002400230025002040F601
:100910006A16B14200D100BFC1F3421501F01F03B6
:10092000012606FA03F3012D02D19689334006E031
:10093000022D02D1168A334001E0968A33400C1210
:10094000012606FA04F41688344013B10CB10120D4
:1009500000E0002070BDF0B503460024002600250D
:10096000002040F66A17B94200D100BF1846C1F313
:10097000421401F01F06012707FA06F5012C01D1E8
:100980000C3004E0022C01D1103000E014301AB118
:1009900007682F43076002E00768AF430760F0BDB8
:1009A0002DE9F04786B005460E460024A24600BF5A
:1009B000A1460027B08900B100BF2F462C8A4CF613
:1009C000FF700440F08804432C82AC894EF6F3108B
:1009D0000440B08831890843718908430443AC81DD
:1009E000AC8A4FF6FF400440B0890443AC8201A8B2
:1009F000FFF7A0FD1F48874202D1DDF810A001E0FB
:100A0000DDF80CA0A88900F4004040B10AEBCA0050
:100A100000EB0A1031684900B0FBF1F807E00AEB7F
:100A2000CA0000EB0A1031688900B0FBF1F86420BD
:100A3000B8FBF0F004012009642101FB1089A889AA
:100A400000F4004040B1322000EBC900B0FBF1F0EF
:100A500000F00700044308E0322000EB0910642195
:100A6000B0FBF1F000F00F0004432C8106B0BDE8AC
:100A7000F087000000380140C1F30802828070470F
:100A800000BFFEE770B504460D4629462046FFF735
:100A9000F3FF00BF80212046FFF726FF0028F9D092
:100AA00070BD70B506460C46002500BF615D30463E
:100AB000FFF7E8FF6D1C605D0028F7D100BF402103
:100AC0003046FFF711FF0028F9D070BD0FB4054B79
:100AD00010B503A9044A029800F018F810BC5DF89C
:100AE00014FB0000610C00081800002002E008C898
:100AF000121F08C1002AFAD170477047002001E098
:100B000001C1121F002AFBD1704700002DE9FF4FE1
:100B100089B09B460446002506E025280BD05A469E
:100B20000B999047641C6D1C20780028F5D10DB0FE
:100B30002846BDE8F08F0027B8460122474900E06B
:100B4000074314F8013F203B02FA03F00842F7D1B3
:100B500020782E2819D114F8010F47F004072A280D
:100B60000ED06FF02F022078A0F1300109290CD8A7
:100B700008EB880102EB410100EB0108641CF2E77D
:100B80000A98641C50F8048B0A9020780028CED074
:100B9000642808D0692806D075281ED05A460B99BB
:100BA00090476D1C58E00A994FF00A0901C90A9153
:100BB000002802DA40422D2102E0390504D52B211C
:100BC0008DF82010012103E0F90704D02021F7E778
:100BD0008A4608AE0DE00021FAE70A994FF00A09AB
:100BE00001C90A91F7E74946FFF7BEFA303106F826
:100BF000011D0028F7D1ADEB060000F120097807B0
:100C000001D44FF00108C84502DDA8EB090000E05F
:100C100000208046002706E008A85A46C05D0B99D0
:100C200090476D1C7F1C5745F6DB04E030205A4688
:100C30000B9990476D1CB8F10001A8F10108F5DC93
:100C400005E016F8010B5A460B9990476D1CB9F157
:100C50000001A9F10109F4DC641C65E70928010021
:100C600070B504460D46E1B20548FFF705FF00BF29
:100C700080210348FFF738FE0028F9D0204670BDD8
:100C800000380140FFF7DEFD322208490848FFF72F
:100C900007FB002405E00548015D0648FFF7F2FE6A
:100CA000641C322CF7DB00BFFEE700001C2800208C
:100CB0000020000800380140D80C00080000002087
:100CC0001C000000EC0A0008F40C00081C000020C6
:100CD00004300000FC0A00080000000000000102CF
:100CE00003040102030406070809020406080000C1
:040CF0000000000000
:0400000508000145A9
:00000001FF
